:100986003F065B4F666D7D077F6F777C395E7971B9
:0B099600010900010800010A00C10077
:09094F0093F580C2A67F017E0031
:10095800D3EF9400EE940040147D6E7C00ED1D7082
:0D096800011CED4C70F7EF1F70E61E80E3E0
:01097500225F
:10088C00AB05AA07D2A77580FEC2A7D2A6EA75F05F
:10089C000A8490098612094FD2A77580FDC2A7D28F
:1008AC00A6EA75F00A84E5F012094FD2A77580FB11
:1008BC00C2A7D2A6EB75F00A8412094FD2A7758095
:1008CC00F7C2A7D2A6EB75F00A84E5F093F580C2C7
:0808DC00A67F017E000209580D
:10097600758910758D3C758BB0D2AFD2ABD28E22F5
:1008E40012097620B405D20030B4FD20B505C2004B
:1008F40030B5FD20B60CC200E4F509F508F50A3060
:10090400B6FD200009AD08AF0912088C80D5AD08EA
:07091400AF0912088C80CC32
:03001B0002091BBC
:10091B00C0E0C0D0758D3C758BB0200022050AE578
:10092B000AC394144019750A000508E508943C4065
:10093B000E7508000509E509943C4003750900D0C4
:04094B00D0D0E032F6
:03000000020800F3
:0C080000787FE4F6D8FD758120020847DF
:10080C000208E4E493A3F8E493A34003F68001F216
:10081C0008DFF48029E493A3F85407240CC8C333ED
:10082C00C4540F4420C8834004F456800146F6DFBC
:10083C00E4800B0102040810204080900996E47EAD
:10084C00019360BCA3FF543F30E509541FFEE493B1
:10085C00A360010ECF54C025E060A840B8E493A378
:10086C00FAE493A3F8E493A3C8C582C8CAC583CAA3
:10087C00F0A3C8C582C8CAC583CADFE9DEE780BE5B
:0109A1000055
:00000001FF
